{
  "_format": "hh-sol-artifact-1",
  "contractName": "ExitLiquidity",
  "sourceName": "contracts/ExitLiquidity.sol",
  "abi": [
    {
      "inputs": [],
      "stateMutability": "nonpayable",
      "type": "constructor"
    },
    {
      "inputs": [],
      "name": "DAI",
      "outputs": [
        {
          "internalType": "address",
          "name": "",
          "type": "address"
        }
      ],
      "stateMutability": "view",
      "type": "function"
    },
    {
      "inputs": [
        {
          "internalType": "uint256",
          "name": "tokenId",
          "type": "uint256"
        },
        {
          "internalType": "address",
          "name": "owner",
          "type": "address"
        },
        {
          "internalType": "address",
          "name": "token0",
          "type": "address"
        },
        {
          "internalType": "address",
          "name": "token1",
          "type": "address"
        },
        {
          "internalType": "uint256",
          "name": "amount0",
          "type": "uint256"
        },
        {
          "internalType": "uint256",
          "name": "amount1",
          "type": "uint256"
        }
      ],
      "name": "_collectTokens",
      "outputs": [],
      "stateMutability": "nonpayable",
      "type": "function"
    },
    {
      "inputs": [
        {
          "internalType": "uint256",
          "name": "tokenId",
          "type": "uint256"
        },
        {
          "internalType": "address",
          "name": "owner",
          "type": "address"
        },
        {
          "internalType": "address",
          "name": "token0",
          "type": "address"
        },
        {
          "internalType": "address",
          "name": "token1",
          "type": "address"
        },
        {
          "internalType": "uint256",
          "name": "amount0",
          "type": "uint256"
        },
        {
          "internalType": "uint256",
          "name": "amount1",
          "type": "uint256"
        }
      ],
      "name": "_sendToOwner",
      "outputs": [],
      "stateMutability": "nonpayable",
      "type": "function"
    },
    {
      "inputs": [
        {
          "internalType": "address",
          "name": "tokenAddress",
          "type": "address"
        },
        {
          "internalType": "address",
          "name": "owner",
          "type": "address"
        },
        {
          "internalType": "uint256",
          "name": "tokenAmount",
          "type": "uint256"
        }
      ],
      "name": "convertToUSDCAndTransfer",
      "outputs": [],
      "stateMutability": "nonpayable",
      "type": "function"
    },
    {
      "inputs": [
        {
          "internalType": "uint256",
          "name": "tokenId",
          "type": "uint256"
        }
      ],
      "name": "exitLiquidity",
      "outputs": [
        {
          "internalType": "uint256",
          "name": "amount0",
          "type": "uint256"
        },
        {
          "internalType": "uint256",
          "name": "amount1",
          "type": "uint256"
        }
      ],
      "stateMutability": "nonpayable",
      "type": "function"
    },
    {
      "inputs": [],
      "name": "nonfungiblePositionManager",
      "outputs": [
        {
          "internalType": "contract INonfungiblePositionManager",
          "name": "",
          "type": "address"
        }
      ],
      "stateMutability": "view",
      "type": "function"
    },
    {
      "inputs": [],
      "name": "nonfungiblePositionManagerAddress",
      "outputs": [
        {
          "internalType": "address",
          "name": "",
          "type": "address"
        }
      ],
      "stateMutability": "view",
      "type": "function"
    },
    {
      "inputs": [],
      "name": "poolFee",
      "outputs": [
        {
          "internalType": "uint24",
          "name": "",
          "type": "uint24"
        }
      ],
      "stateMutability": "view",
      "type": "function"
    },
    {
      "inputs": [],
      "name": "quoter",
      "outputs": [
        {
          "internalType": "contract IQuoter",
          "name": "",
          "type": "address"
        }
      ],
      "stateMutability": "view",
      "type": "function"
    },
    {
      "inputs": [],
      "name": "uniswapRouter",
      "outputs": [
        {
          "internalType": "contract IUniswapRouter",
          "name": "",
          "type": "address"
        }
      ],
      "stateMutability": "view",
      "type": "function"
    },
    {
      "inputs": [],
      "name": "userAddress",
      "outputs": [
        {
          "internalType": "address",
          "name": "",
          "type": "address"
        }
      ],
      "stateMutability": "view",
      "type": "function"
    }
  ],
  "bytecode": "0x60a0604052600080546001600160a01b03191673c36442b4a4522e871399cd717abdd847ab11fe8817905534801561003657600080fd5b50600180546001600160a01b031916331790556000546001600160601b031960609190911b1660805260805160601c610d75610090600039806102f652806103a2528061046b528061050e528061063a5250610d756000f3fe608060405234801561001057600080fd5b50600436106100a95760003560e01c8063b44a272211610071578063b44a272214610111578063b9b5a68014610119578063c6bbd5a71461012c578063c8cdf64014610134578063e0bab4c414610155578063e4128fb31461015d576100a9565b8063089fe6aa146100ae5780633c7e64b3146100cc5780635bfccac9146100e1578063735de9f7146100f6578063a1a741a2146100fe575b600080fd5b6100b6610165565b6040516100c39190610d00565b60405180910390f35b6100df6100da366004610956565b61016b565b005b6100e9610298565b6040516100c39190610b85565b6100e96102a7565b6100df61010c3660046109e6565b6102bf565b6100e96103a0565b6100df6101273660046109e6565b6103c4565b6100e961044c565b6101476101423660046109b6565b610464565b6040516100c3929190610d19565b6100e96106dd565b6100e96106f5565b610bb881565b61018a8373e592427a0aece92de3edee1f18e0157c0586156483610704565b60408051610100810182526001600160a01b038086168252734a8283a01ae2e5ac99cf533fa4c4a97e8d277a1260208301819052610bb88385018190529186166060840152601942016080840181905260a08401869052600060c0850181905260e08501819052945163414bf38960e01b8152909488949293928892889291829173e592427a0aece92de3edee1f18e0157c058615649063414bf389908490610237908590600401610c97565b6020604051808303818588803b15801561025057600080fd5b505af1158015610264573d6000803e3d6000fd5b50505050506040513d601f19601f8201168201806040525081019061028991906109ce565b50505050505050505050505050565b6000546001600160a01b031681565b73e592427a0aece92de3edee1f18e0157c0586156481565b604080516080810182528781523060208201526001600160801b038085168284015283166060820152905163fc6f786560e01b81527f00000000000000000000000000000000000000000000000000000000000000006001600160a01b03169063fc6f786590610333908490600401610c11565b6040805180830381600087803b15801561034c57600080fd5b505af1158015610360573d6000803e3d6000fd5b505050506040513d601f19601f820116820180604052508101906103849190610a4a565b90935091506103978787878787876103c4565b50505050505050565b7f000000000000000000000000000000000000000000000000000000000000000081565b6001600160a01b038416734a8283a01ae2e5ac99cf533fa4c4a97e8d277a1214156103f9576103f48486846107f9565b610404565b61040484868461016b565b6001600160a01b038316734a8283a01ae2e5ac99cf533fa4c4a97e8d277a121415610439576104348386836107f9565b610444565b61044483868361016b565b505050505050565b73b27308f9f90d607463bb33ea1bebb41c27ce5ab681565b60008060007f00000000000000000000000000000000000000000000000000000000000000006001600160a01b0316636352211e856040518263ffffffff1660e01b81526004016104b59190610d10565b60206040518083038186803b1580156104cd57600080fd5b505afa1580156104e1573d6000803e3d6000fd5b505050506040513d601f19601f820116820180604052508101906105059190610933565b905060008060007f00000000000000000000000000000000000000000000000000000000000000006001600160a01b03166399fbab88886040518263ffffffff1660e01b81526004016105589190610d10565b6101806040518083038186803b15801561057157600080fd5b505afa158015610585573d6000803e3d6000fd5b505050506040513d601f19601f820116820180604052508101906105a99190610a6d565b505050509750505050945094505050836001600160a01b0316336001600160a01b0316146105f25760405162461bcd60e51b81526004016105e990610bce565b60405180910390fd5b6040805160a0810182528881526001600160801b0383166020820152600081830181905260608201526064420160808201529051630624e65f60e11b81526001600160a01b037f00000000000000000000000000000000000000000000000000000000000000001690630c49ccbe9061066f908490600401610c54565b6040805180830381600087803b15801561068857600080fd5b505af115801561069c573d6000803e3d6000fd5b505050506040513d601f19601f820116820180604052508101906106c09190610a4a565b90975095506106d3888686868b8b6102bf565b5050505050915091565b7327ba4f938a90d06caa42c111f6189b918220403981565b6001546001600160a01b031681565b600080846001600160a01b031663095ea7b360e01b858560405160240161072c929190610b99565b60408051601f198184030181529181526020820180516001600160e01b03166001600160e01b031990941693909317909252905161076a9190610b4c565b6000604051808303816000865af19150503d80600081146107a7576040519150601f19603f3d011682016040523d82523d6000602084013e6107ac565b606091505b50915091508180156107d65750805115806107d65750808060200190518101906107d69190610996565b6107f25760405162461bcd60e51b81526004016105e990610bb2565b5050505050565b600080846001600160a01b031663a9059cbb60e01b8585604051602401610821929190610b99565b60408051601f198184030181529181526020820180516001600160e01b03166001600160e01b031990941693909317909252905161085f9190610b4c565b6000604051808303816000865af19150503d806000811461089c576040519150601f19603f3d011682016040523d82523d6000602084013e6108a1565b606091505b50915091508180156108cb5750805115806108cb5750808060200190518101906108cb9190610996565b6107f25760405162461bcd60e51b81526004016105e990610bf5565b80516108f281610d27565b919050565b8051600281900b81146108f257600080fd5b80516001600160801b03811681146108f257600080fd5b805162ffffff811681146108f257600080fd5b600060208284031215610944578081fd5b815161094f81610d27565b9392505050565b60008060006060848603121561096a578182fd5b833561097581610d27565b9250602084013561098581610d27565b929592945050506040919091013590565b6000602082840312156109a7578081fd5b8151801515811461094f578182fd5b6000602082840312156109c7578081fd5b5035919050565b6000602082840312156109df578081fd5b5051919050565b60008060008060008060c087890312156109fe578182fd5b863595506020870135610a1081610d27565b94506040870135610a2081610d27565b93506060870135610a3081610d27565b9598949750929560808101359460a0909101359350915050565b60008060408385031215610a5c578182fd5b505080516020909101519092909150565b6000806000806000806000806000806000806101808d8f031215610a8f578586fd5b8c516bffffffffffffffffffffffff81168114610aaa578687fd5b9b50610ab860208e016108e7565b9a50610ac660408e016108e7565b9950610ad460608e016108e7565b9850610ae260808e01610920565b9750610af060a08e016108f7565b9650610afe60c08e016108f7565b9550610b0c60e08e01610909565b94506101008d015193506101208d01519250610b2b6101408e01610909565b9150610b3a6101608e01610909565b90509295989b509295989b509295989b565b60008251815b81811015610b6c5760208186018101518583015201610b52565b81811115610b7a5782828501525b509190910192915050565b6001600160a01b0391909116815260200190565b6001600160a01b03929092168252602082015260400190565b602080825260029082015261534160f01b604082015260600190565b6020808252600d908201526c2737ba103a34329037bbb732b960991b604082015260600190565b60208082526002908201526114d560f21b604082015260600190565b815181526020808301516001600160a01b0316908201526040808301516001600160801b0390811691830191909152606092830151169181019190915260800190565b600060a082019050825182526001600160801b03602084015116602083015260408301516040830152606083015160608301526080830151608083015292915050565b81516001600160a01b03908116825260208084015182169083015260408084015162ffffff16908301526060808401518216908301526080808401519083015260a0838101519083015260c0808401519083015260e09283015116918101919091526101000190565b62ffffff91909116815260200190565b90815260200190565b918252602082015260400190565b6001600160a01b0381168114610d3c57600080fd5b5056fea2646970667358221220fc37fa7f0cdad4a35f9ef2af3e0478ac0c1937e780ffd0309202b818890ca19a64736f6c63430007060033",
  "linkReferences": {},
  "deployedLinkReferences": {}
}