{"contracts/ExitLiquidity.sol":{"ExitLiquidity":{"abi":[{"inputs":[],"stateMutability":"nonpayable","type":"constructor"},{"inputs":[],"name":"DAI","outputs":[{"internalType":"address","name":"","type":"address"}],"stateMutability":"view","type":"function"},{"inputs":[{"internalType":"uint256","name":"tokenId","type":"uint256"},{"internalType":"address","name":"owner","type":"address"},{"internalType":"address","name":"token0","type":"address"},{"internalType":"address","name":"token1","type":"address"},{"internalType":"uint256","name":"amount0","type":"uint256"},{"internalType":"uint256","name":"amount1","type":"uint256"}],"name":"_collectTokens","outputs":[],"stateMutability":"nonpayable","type":"function"},{"inputs":[{"internalType":"uint256","name":"tokenId","type":"uint256"},{"internalType":"address","name":"owner","type":"address"},{"internalType":"address","name":"token0","type":"address"},{"internalType":"address","name":"token1","type":"address"},{"internalType":"uint256","name":"amount0","type":"uint256"},{"internalType":"uint256","name":"amount1","type":"uint256"}],"name":"_sendToOwner","outputs":[],"stateMutability":"nonpayable","type":"function"},{"inputs":[{"internalType":"address","name":"tokenAddress","type":"address"},{"internalType":"address","name":"owner","type":"address"},{"internalType":"uint256","name":"tokenAmount","type":"uint256"}],"name":"convertToUSDCAndTransfer","outputs":[],"stateMutability":"nonpayable","type":"function"},{"inputs":[{"internalType":"uint256","name":"tokenId","type":"uint256"}],"name":"exitLiquidity","outputs":[{"internalType":"uint256","name":"amount0","type":"uint256"},{"internalType":"uint256","name":"amount1","type":"uint256"}],"stateMutability":"nonpayable","type":"function"},{"inputs":[],"name":"nonfungiblePositionManager","outputs":[{"internalType":"contract INonfungiblePositionManager","name":"","type":"address"}],"stateMutability":"view","type":"function"},{"inputs":[],"name":"nonfungiblePositionManagerAddress","outputs":[{"internalType":"address","name":"","type":"address"}],"stateMutability":"view","type":"function"},{"inputs":[],"name":"poolFee","outputs":[{"internalType":"uint24","name":"","type":"uint24"}],"stateMutability":"view","type":"function"},{"inputs":[],"name":"quoter","outputs":[{"internalType":"contract IQuoter","name":"","type":"address"}],"stateMutability":"view","type":"function"},{"inputs":[],"name":"uniswapRouter","outputs":[{"internalType":"contract IUniswapRouter","name":"","type":"address"}],"stateMutability":"view","type":"function"},{"inputs":[],"name":"userAddress","outputs":[{"internalType":"address","name":"","type":"address"}],"stateMutability":"view","type":"function"}],"devdoc":{"kind":"dev","methods":{},"version":1},"evm":{"bytecode":{"linkReferences":{},"object":"60a0604052600080546001600160a01b03191673c36442b4a4522e871399cd717abdd847ab11fe8817905534801561003657600080fd5b50600180546001600160a01b031916331790556000546001600160601b031960609190911b1660805260805160601c610d75610090600039806102f652806103a2528061046b528061050e528061063a5250610d756000f3fe608060405234801561001057600080fd5b50600436106100a95760003560e01c8063b44a272211610071578063b44a272214610111578063b9b5a68014610119578063c6bbd5a71461012c578063c8cdf64014610134578063e0bab4c414610155578063e4128fb31461015d576100a9565b8063089fe6aa146100ae5780633c7e64b3146100cc5780635bfccac9146100e1578063735de9f7146100f6578063a1a741a2146100fe575b600080fd5b6100b6610165565b6040516100c39190610d00565b60405180910390f35b6100df6100da366004610956565b61016b565b005b6100e9610298565b6040516100c39190610b85565b6100e96102a7565b6100df61010c3660046109e6565b6102bf565b6100e96103a0565b6100df6101273660046109e6565b6103c4565b6100e961044c565b6101476101423660046109b6565b610464565b6040516100c3929190610d19565b6100e96106dd565b6100e96106f5565b610bb881565b61018a8373e592427a0aece92de3edee1f18e0157c0586156483610704565b60408051610100810182526001600160a01b038086168252734a8283a01ae2e5ac99cf533fa4c4a97e8d277a1260208301819052610bb88385018190529186166060840152601942016080840181905260a08401869052600060c0850181905260e08501819052945163414bf38960e01b8152909488949293928892889291829173e592427a0aece92de3edee1f18e0157c058615649063414bf389908490610237908590600401610c97565b6020604051808303818588803b15801561025057600080fd5b505af1158015610264573d6000803e3d6000fd5b50505050506040513d601f19601f8201168201806040525081019061028991906109ce565b50505050505050505050505050565b6000546001600160a01b031681565b73e592427a0aece92de3edee1f18e0157c0586156481565b604080516080810182528781523060208201526001600160801b038085168284015283166060820152905163fc6f786560e01b81527f00000000000000000000000000000000000000000000000000000000000000006001600160a01b03169063fc6f786590610333908490600401610c11565b6040805180830381600087803b15801561034c57600080fd5b505af1158015610360573d6000803e3d6000fd5b505050506040513d601f19601f820116820180604052508101906103849190610a4a565b90935091506103978787878787876103c4565b50505050505050565b7f000000000000000000000000000000000000000000000000000000000000000081565b6001600160a01b038416734a8283a01ae2e5ac99cf533fa4c4a97e8d277a1214156103f9576103f48486846107f9565b610404565b61040484868461016b565b6001600160a01b038316734a8283a01ae2e5ac99cf533fa4c4a97e8d277a121415610439576104348386836107f9565b610444565b61044483868361016b565b505050505050565b73b27308f9f90d607463bb33ea1bebb41c27ce5ab681565b60008060007f00000000000000000000000000000000000000000000000000000000000000006001600160a01b0316636352211e856040518263ffffffff1660e01b81526004016104b59190610d10565b60206040518083038186803b1580156104cd57600080fd5b505afa1580156104e1573d6000803e3d6000fd5b505050506040513d601f19601f820116820180604052508101906105059190610933565b905060008060007f00000000000000000000000000000000000000000000000000000000000000006001600160a01b03166399fbab88886040518263ffffffff1660e01b81526004016105589190610d10565b6101806040518083038186803b15801561057157600080fd5b505afa158015610585573d6000803e3d6000fd5b505050506040513d601f19601f820116820180604052508101906105a99190610a6d565b505050509750505050945094505050836001600160a01b0316336001600160a01b0316146105f25760405162461bcd60e51b81526004016105e990610bce565b60405180910390fd5b6040805160a0810182528881526001600160801b0383166020820152600081830181905260608201526064420160808201529051630624e65f60e11b81526001600160a01b037f00000000000000000000000000000000000000000000000000000000000000001690630c49ccbe9061066f908490600401610c54565b6040805180830381600087803b15801561068857600080fd5b505af115801561069c573d6000803e3d6000fd5b505050506040513d601f19601f820116820180604052508101906106c09190610a4a565b90975095506106d3888686868b8b6102bf565b5050505050915091565b7327ba4f938a90d06caa42c111f6189b918220403981565b6001546001600160a01b031681565b600080846001600160a01b031663095ea7b360e01b858560405160240161072c929190610b99565b60408051601f198184030181529181526020820180516001600160e01b03166001600160e01b031990941693909317909252905161076a9190610b4c565b6000604051808303816000865af19150503d80600081146107a7576040519150601f19603f3d011682016040523d82523d6000602084013e6107ac565b606091505b50915091508180156107d65750805115806107d65750808060200190518101906107d69190610996565b6107f25760405162461bcd60e51b81526004016105e990610bb2565b5050505050565b600080846001600160a01b031663a9059cbb60e01b8585604051602401610821929190610b99565b60408051601f198184030181529181526020820180516001600160e01b03166001600160e01b031990941693909317909252905161085f9190610b4c565b6000604051808303816000865af19150503d806000811461089c576040519150601f19603f3d011682016040523d82523d6000602084013e6108a1565b606091505b50915091508180156108cb5750805115806108cb5750808060200190518101906108cb9190610996565b6107f25760405162461bcd60e51b81526004016105e990610bf5565b80516108f281610d27565b919050565b8051600281900b81146108f257600080fd5b80516001600160801b03811681146108f257600080fd5b805162ffffff811681146108f257600080fd5b600060208284031215610944578081fd5b815161094f81610d27565b9392505050565b60008060006060848603121561096a578182fd5b833561097581610d27565b9250602084013561098581610d27565b929592945050506040919091013590565b6000602082840312156109a7578081fd5b8151801515811461094f578182fd5b6000602082840312156109c7578081fd5b5035919050565b6000602082840312156109df578081fd5b5051919050565b60008060008060008060c087890312156109fe578182fd5b863595506020870135610a1081610d27565b94506040870135610a2081610d27565b93506060870135610a3081610d27565b9598949750929560808101359460a0909101359350915050565b60008060408385031215610a5c578182fd5b505080516020909101519092909150565b6000806000806000806000806000806000806101808d8f031215610a8f578586fd5b8c516bffffffffffffffffffffffff81168114610aaa578687fd5b9b50610ab860208e016108e7565b9a50610ac660408e016108e7565b9950610ad460608e016108e7565b9850610ae260808e01610920565b9750610af060a08e016108f7565b9650610afe60c08e016108f7565b9550610b0c60e08e01610909565b94506101008d015193506101208d01519250610b2b6101408e01610909565b9150610b3a6101608e01610909565b90509295989b509295989b509295989b565b60008251815b81811015610b6c5760208186018101518583015201610b52565b81811115610b7a5782828501525b509190910192915050565b6001600160a01b0391909116815260200190565b6001600160a01b03929092168252602082015260400190565b602080825260029082015261534160f01b604082015260600190565b6020808252600d908201526c2737ba103a34329037bbb732b960991b604082015260600190565b60208082526002908201526114d560f21b604082015260600190565b815181526020808301516001600160a01b0316908201526040808301516001600160801b0390811691830191909152606092830151169181019190915260800190565b600060a082019050825182526001600160801b03602084015116602083015260408301516040830152606083015160608301526080830151608083015292915050565b81516001600160a01b03908116825260208084015182169083015260408084015162ffffff16908301526060808401518216908301526080808401519083015260a0838101519083015260c0808401519083015260e09283015116918101919091526101000190565b62ffffff91909116815260200190565b90815260200190565b918252602082015260400190565b6001600160a01b0381168114610d3c57600080fd5b5056fea2646970667358221220fc37fa7f0cdad4a35f9ef2af3e0478ac0c1937e780ffd0309202b818890ca19a64736f6c63430007060033","opcodes":"PUSH1 0xA0 PUSH1 0x40 MSTORE PUSH1 0x0 DUP1 SLOAD PUSH1 0x1 PUSH1 0x1 PUSH1 0xA0 SHL SUB NOT AND PUSH20 0xC36442B4A4522E871399CD717ABDD847AB11FE88 OR SWAP1 SSTORE CALLVALUE DUP1 ISZERO PUSH2 0x36 JUMPI PUSH1 0x0 DUP1 REVERT JUMPDEST POP PUSH1 0x1 DUP1 SLOAD PUSH1 0x1 PUSH1 0x1 PUSH1 0xA0 SHL SUB NOT AND CALLER OR SWAP1 SSTORE PUSH1 0x0 SLOAD PUSH1 0x1 PUSH1 0x1 PUSH1 0x60 SHL SUB NOT PUSH1 0x60 SWAP2 SWAP1 SWAP2 SHL AND PUSH1 0x80 MSTORE PUSH1 0x80 MLOAD PUSH1 0x60 SHR PUSH2 0xD75 PUSH2 0x90 PUSH1 0x0 CODECOPY DUP1 PUSH2 0x2F6 MSTORE DUP1 PUSH2 0x3A2 MSTORE DUP1 PUSH2 0x46B MSTORE DUP1 PUSH2 0x50E MSTORE DUP1 PUSH2 0x63A MSTORE POP PUSH2 0xD75 PUSH1 0x0 RETURN INVALID PUSH1 0x80 PUSH1 0x40 MSTORE CALLVALUE DUP1 ISZERO PUSH2 0x10 JUMPI PUSH1 0x0 DUP1 REVERT JUMPDEST POP PUSH1 0x4 CALLDATASIZE LT PUSH2 0xA9 JUMPI PUSH1 0x0 CALLDATALOAD PUSH1 0xE0 SHR DUP1 PUSH4 0xB44A2722 GT PUSH2 0x71 JUMPI DUP1 PUSH4 0xB44A2722 EQ PUSH2 0x111 JUMPI DUP1 PUSH4 0xB9B5A680 EQ PUSH2 0x119 JUMPI DUP1 PUSH4 0xC6BBD5A7 EQ PUSH2 0x12C JUMPI DUP1 PUSH4 0xC8CDF640 EQ PUSH2 0x134 JUMPI DUP1 PUSH4 0xE0BAB4C4 EQ PUSH2 0x155 JUMPI DUP1 PUSH4 0xE4128FB3 EQ PUSH2 0x15D JUMPI PUSH2 0xA9 JUMP JUMPDEST DUP1 PUSH4 0x89FE6AA EQ PUSH2 0xAE JUMPI DUP1 PUSH4 0x3C7E64B3 EQ PUSH2 0xCC JUMPI DUP1 PUSH4 0x5BFCCAC9 EQ PUSH2 0xE1 JUMPI DUP1 PUSH4 0x735DE9F7 EQ PUSH2 0xF6 JUMPI DUP1 PUSH4 0xA1A741A2 EQ PUSH2 0xFE JUMPI JUMPDEST PUSH1 0x0 DUP1 REVERT JUMPDEST PUSH2 0xB6 PUSH2 0x165 JUMP JUMPDEST PUSH1 0x40 MLOAD PUSH2 0xC3 SWAP2 SWAP1 PUSH2 0xD00 JUMP JUMPDEST PUSH1 0x40 MLOAD DUP1 SWAP2 SUB SWAP1 RETURN JUMPDEST PUSH2 0xDF PUSH2 0xDA CALLDATASIZE PUSH1 0x4 PUSH2 0x956 JUMP JUMPDEST PUSH2 0x16B JUMP JUMPDEST STOP JUMPDEST PUSH2 0xE9 PUSH2 0x298 JUMP JUMPDEST PUSH1 0x40 MLOAD PUSH2 0xC3 SWAP2 SWAP1 PUSH2 0xB85 JUMP JUMPDEST PUSH2 0xE9 PUSH2 0x2A7 JUMP JUMPDEST PUSH2 0xDF PUSH2 0x10C CALLDATASIZE PUSH1 0x4 PUSH2 0x9E6 JUMP JUMPDEST PUSH2 0x2BF JUMP JUMPDEST PUSH2 0xE9 PUSH2 0x3A0 JUMP JUMPDEST PUSH2 0xDF PUSH2 0x127 CALLDATASIZE PUSH1 0x4 PUSH2 0x9E6 JUMP JUMPDEST PUSH2 0x3C4 JUMP JUMPDEST PUSH2 0xE9 PUSH2 0x44C JUMP JUMPDEST PUSH2 0x147 PUSH2 0x142 CALLDATASIZE PUSH1 0x4 PUSH2 0x9B6 JUMP JUMPDEST PUSH2 0x464 JUMP JUMPDEST PUSH1 0x40 MLOAD PUSH2 0xC3 SWAP3 SWAP2 SWAP1 PUSH2 0xD19 JUMP JUMPDEST PUSH2 0xE9 PUSH2 0x6DD JUMP JUMPDEST PUSH2 0xE9 PUSH2 0x6F5 JUMP JUMPDEST PUSH2 0xBB8 DUP2 JUMP JUMPDEST PUSH2 0x18A DUP4 PUSH20 0xE592427A0AECE92DE3EDEE1F18E0157C05861564 DUP4 PUSH2 0x704 JUMP JUMPDEST PUSH1 0x40 DUP1 MLOAD PUSH2 0x100 DUP2 ADD DUP3 MSTORE PUSH1 0x1 PUSH1 0x1 PUSH1 0xA0 SHL SUB DUP1 DUP7 AND DUP3 MSTORE PUSH20 0x4A8283A01AE2E5AC99CF533FA4C4A97E8D277A12 PUSH1 0x20 DUP4 ADD DUP2 SWAP1 MSTORE PUSH2 0xBB8 DUP4 DUP6 ADD DUP2 SWAP1 MSTORE SWAP2 DUP7 AND PUSH1 0x60 DUP5 ADD MSTORE PUSH1 0x19 TIMESTAMP ADD PUSH1 0x80 DUP5 ADD DUP2 SWAP1 MSTORE PUSH1 0xA0 DUP5 ADD DUP7 SWAP1 MSTORE PUSH1 0x0 PUSH1 0xC0 DUP6 ADD DUP2 SWAP1 MSTORE PUSH1 0xE0 DUP6 ADD DUP2 SWAP1 MSTORE SWAP5 MLOAD PUSH4 0x414BF389 PUSH1 0xE0 SHL DUP2 MSTORE SWAP1 SWAP5 DUP9 SWAP5 SWAP3 SWAP4 SWAP3 DUP9 SWAP3 DUP9 SWAP3 SWAP2 DUP3 SWAP2 PUSH20 0xE592427A0AECE92DE3EDEE1F18E0157C05861564 SWAP1 PUSH4 0x414BF389 SWAP1 DUP5 SWAP1 PUSH2 0x237 SWAP1 DUP6 SWAP1 PUSH1 0x4 ADD PUSH2 0xC97 JUMP JUMPDEST PUSH1 0x20 PUSH1 0x40 MLOAD DUP1 DUP4 SUB DUP2 DUP6 DUP9 DUP1 EXTCODESIZE ISZERO DUP1 ISZERO PUSH2 0x250 JUMPI PUSH1 0x0 DUP1 REVERT JUMPDEST POP GAS CALL ISZERO DUP1 ISZERO PUSH2 0x264 JUMPI RETURNDATASIZE PUSH1 0x0 DUP1 RETURNDATACOPY RETURNDATASIZE PUSH1 0x0 REVERT JUMPDEST POP POP POP POP POP PUSH1 0x40 MLOAD RETURNDATASIZE PUSH1 0x1F NOT PUSH1 0x1F DUP3 ADD AND DUP3 ADD DUP1 PUSH1 0x40 MSTORE POP DUP2 ADD SWAP1 PUSH2 0x289 SWAP2 SWAP1 PUSH2 0x9CE JUMP JUMPDEST POP POP POP POP POP POP POP POP POP POP POP POP POP JUMP JUMPDEST PUSH1 0x0 SLOAD PUSH1 0x1 PUSH1 0x1 PUSH1 0xA0 SHL SUB AND DUP2 JUMP JUMPDEST PUSH20 0xE592427A0AECE92DE3EDEE1F18E0157C05861564 DUP2 JUMP JUMPDEST PUSH1 0x40 DUP1 MLOAD PUSH1 0x80 DUP2 ADD DUP3 MSTORE DUP8 DUP2 MSTORE ADDRESS PUSH1 0x20 DUP3 ADD MSTORE PUSH1 0x1 PUSH1 0x1 PUSH1 0x80 SHL SUB DUP1 DUP6 AND DUP3 DUP5 ADD MSTORE DUP4 AND PUSH1 0x60 DUP3 ADD MSTORE SWAP1 MLOAD PUSH4 0xFC6F7865 PUSH1 0xE0 SHL DUP2 MSTORE PUSH32 0x0 PUSH1 0x1 PUSH1 0x1 PUSH1 0xA0 SHL SUB AND SWAP1 PUSH4 0xFC6F7865 SWAP1 PUSH2 0x333 SWAP1 DUP5 SWAP1 PUSH1 0x4 ADD PUSH2 0xC11 JUMP JUMPDEST PUSH1 0x40 DUP1 MLOAD DUP1 DUP4 SUB DUP2 PUSH1 0x0 DUP8 DUP1 EXTCODESIZE ISZERO DUP1 ISZERO PUSH2 0x34C JUMPI PUSH1 0x0 DUP1 REVERT JUMPDEST POP GAS CALL ISZERO DUP1 ISZERO PUSH2 0x360 JUMPI RETURNDATASIZE PUSH1 0x0 DUP1 RETURNDATACOPY RETURNDATASIZE PUSH1 0x0 REVERT JUMPDEST POP POP POP POP PUSH1 0x40 MLOAD RETURNDATASIZE PUSH1 0x1F NOT PUSH1 0x1F DUP3 ADD AND DUP3 ADD DUP1 PUSH1 0x40 MSTORE POP DUP2 ADD SWAP1 PUSH2 0x384 SWAP2 SWAP1 PUSH2 0xA4A JUMP JUMPDEST SWAP1 SWAP4 POP SWAP2 POP PUSH2 0x397 DUP8 DUP8 DUP8 DUP8 DUP8 DUP8 PUSH2 0x3C4 JUMP JUMPDEST POP POP POP POP POP POP POP JUMP JUMPDEST PUSH32 0x0 DUP2 JUMP JUMPDEST PUSH1 0x1 PUSH1 0x1 PUSH1 0xA0 SHL SUB DUP5 AND PUSH20 0x4A8283A01AE2E5AC99CF533FA4C4A97E8D277A12 EQ ISZERO PUSH2 0x3F9 JUMPI PUSH2 0x3F4 DUP5 DUP7 DUP5 PUSH2 0x7F9 JUMP JUMPDEST PUSH2 0x404 JUMP JUMPDEST PUSH2 0x404 DUP5 DUP7 DUP5 PUSH2 0x16B JUMP JUMPDEST PUSH1 0x1 PUSH1 0x1 PUSH1 0xA0 SHL SUB DUP4 AND PUSH20 0x4A8283A01AE2E5AC99CF533FA4C4A97E8D277A12 EQ ISZERO PUSH2 0x439 JUMPI PUSH2 0x434 DUP4 DUP7 DUP4 PUSH2 0x7F9 JUMP JUMPDEST PUSH2 0x444 JUMP JUMPDEST PUSH2 0x444 DUP4 DUP7 DUP4 PUSH2 0x16B JUMP JUMPDEST POP POP POP POP POP POP JUMP JUMPDEST PUSH20 0xB27308F9F90D607463BB33EA1BEBB41C27CE5AB6 DUP2 JUMP JUMPDEST PUSH1 0x0 DUP1 PUSH1 0x0 PUSH32 0x0 PUSH1 0x1 PUSH1 0x1 PUSH1 0xA0 SHL SUB AND PUSH4 0x6352211E DUP6 PUSH1 0x40 MLOAD DUP3 PUSH4 0xFFFFFFFF AND PUSH1 0xE0 SHL DUP2 MSTORE PUSH1 0x4 ADD PUSH2 0x4B5 SWAP2 SWAP1 PUSH2 0xD10 JUMP JUMPDEST PUSH1 0x20 PUSH1 0x40 MLOAD DUP1 DUP4 SUB DUP2 DUP7 DUP1 EXTCODESIZE ISZERO DUP1 ISZERO PUSH2 0x4CD JUMPI PUSH1 0x0 DUP1 REVERT JUMPDEST POP GAS STATICCALL ISZERO DUP1 ISZERO PUSH2 0x4E1 JUMPI RETURNDATASIZE PUSH1 0x0 DUP1 RETURNDATACOPY RETURNDATASIZE PUSH1 0x0 REVERT JUMPDEST POP POP POP POP PUSH1 0x40 MLOAD RETURNDATASIZE PUSH1 0x1F NOT PUSH1 0x1F DUP3 ADD AND DUP3 ADD DUP1 PUSH1 0x40 MSTORE POP DUP2 ADD SWAP1 PUSH2 0x505 SWAP2 SWAP1 PUSH2 0x933 JUMP JUMPDEST SWAP1 POP PUSH1 0x0 DUP1 PUSH1 0x0 PUSH32 0x0 PUSH1 0x1 PUSH1 0x1 PUSH1 0xA0 SHL SUB AND PUSH4 0x99FBAB88 DUP9 PUSH1 0x40 MLOAD DUP3 PUSH4 0xFFFFFFFF AND PUSH1 0xE0 SHL DUP2 MSTORE PUSH1 0x4 ADD PUSH2 0x558 SWAP2 SWAP1 PUSH2 0xD10 JUMP JUMPDEST PUSH2 0x180 PUSH1 0x40 MLOAD DUP1 DUP4 SUB DUP2 DUP7 DUP1 EXTCODESIZE ISZERO DUP1 ISZERO PUSH2 0x571 JUMPI PUSH1 0x0 DUP1 REVERT JUMPDEST POP GAS STATICCALL ISZERO DUP1 ISZERO PUSH2 0x585 JUMPI RETURNDATASIZE PUSH1 0x0 DUP1 RETURNDATACOPY RETURNDATASIZE PUSH1 0x0 REVERT JUMPDEST POP POP POP POP PUSH1 0x40 MLOAD RETURNDATASIZE PUSH1 0x1F NOT PUSH1 0x1F DUP3 ADD AND DUP3 ADD DUP1 PUSH1 0x40 MSTORE POP DUP2 ADD SWAP1 PUSH2 0x5A9 SWAP2 SWAP1 PUSH2 0xA6D JUMP JUMPDEST POP POP POP POP SWAP8 POP POP POP POP SWAP5 POP SWAP5 POP POP POP DUP4 PUSH1 0x1 PUSH1 0x1 PUSH1 0xA0 SHL SUB AND CALLER PUSH1 0x1 PUSH1 0x1 PUSH1 0xA0 SHL SUB AND EQ PUSH2 0x5F2 JUMPI PUSH1 0x40 MLOAD PUSH3 0x461BCD PUSH1 0xE5 SHL DUP2 MSTORE PUSH1 0x4 ADD PUSH2 0x5E9 SWAP1 PUSH2 0xBCE JUMP JUMPDEST PUSH1 0x40 MLOAD DUP1 SWAP2 SUB SWAP1 REVERT JUMPDEST PUSH1 0x40 DUP1 MLOAD PUSH1 0xA0 DUP2 ADD DUP3 MSTORE DUP9 DUP2 MSTORE PUSH1 0x1 PUSH1 0x1 PUSH1 0x80 SHL SUB DUP4 AND PUSH1 0x20 DUP3 ADD MSTORE PUSH1 0x0 DUP2 DUP4 ADD DUP2 SWAP1 MSTORE PUSH1 0x60 DUP3 ADD MSTORE PUSH1 0x64 TIMESTAMP ADD PUSH1 0x80 DUP3 ADD MSTORE SWAP1 MLOAD PUSH4 0x624E65F PUSH1 0xE1 SHL DUP2 MSTORE PUSH1 0x1 PUSH1 0x1 PUSH1 0xA0 SHL SUB PUSH32 0x0 AND SWAP1 PUSH4 0xC49CCBE SWAP1 PUSH2 0x66F SWAP1 DUP5 SWAP1 PUSH1 0x4 ADD PUSH2 0xC54 JUMP JUMPDEST PUSH1 0x40 DUP1 MLOAD DUP1 DUP4 SUB DUP2 PUSH1 0x0 DUP8 DUP1 EXTCODESIZE ISZERO DUP1 ISZERO PUSH2 0x688 JUMPI PUSH1 0x0 DUP1 REVERT JUMPDEST POP GAS CALL ISZERO DUP1 ISZERO PUSH2 0x69C JUMPI RETURNDATASIZE PUSH1 0x0 DUP1 RETURNDATACOPY RETURNDATASIZE PUSH1 0x0 REVERT JUMPDEST POP POP POP POP PUSH1 0x40 MLOAD RETURNDATASIZE PUSH1 0x1F NOT PUSH1 0x1F DUP3 ADD AND DUP3 ADD DUP1 PUSH1 0x40 MSTORE POP DUP2 ADD SWAP1 PUSH2 0x6C0 SWAP2 SWAP1 PUSH2 0xA4A JUMP JUMPDEST SWAP1 SWAP8 POP SWAP6 POP PUSH2 0x6D3 DUP9 DUP7 DUP7 DUP7 DUP12 DUP12 PUSH2 0x2BF JUMP JUMPDEST POP POP POP POP POP SWAP2 POP SWAP2 JUMP JUMPDEST PUSH20 0x27BA4F938A90D06CAA42C111F6189B9182204039 DUP2 JUMP JUMPDEST PUSH1 0x1 SLOAD PUSH1 0x1 PUSH1 0x1 PUSH1 0xA0 SHL SUB AND DUP2 JUMP JUMPDEST PUSH1 0x0 DUP1 DUP5 PUSH1 0x1 PUSH1 0x1 PUSH1 0xA0 SHL SUB AND PUSH4 0x95EA7B3 PUSH1 0xE0 SHL DUP6 DUP6 PUSH1 0x40 MLOAD PUSH1 0x24 ADD PUSH2 0x72C SWAP3 SWAP2 SWAP1 PUSH2 0xB99 JUMP JUMPDEST PUSH1 0x40 DUP1 MLOAD PUSH1 0x1F NOT DUP2 DUP5 SUB ADD DUP2 MSTORE SWAP2 DUP2 MSTORE PUSH1 0x20 DUP3 ADD DUP1 MLOAD PUSH1 0x1 PUSH1 0x1 PUSH1 0xE0 SHL SUB AND PUSH1 0x1 PUSH1 0x1 PUSH1 0xE0 SHL SUB NOT SWAP1 SWAP5 AND SWAP4 SWAP1 SWAP4 OR SWAP1 SWAP3 MSTORE SWAP1 MLOAD PUSH2 0x76A SWAP2 SWAP1 PUSH2 0xB4C JUMP JUMPDEST PUSH1 0x0 PUSH1 0x40 MLOAD DUP1 DUP4 SUB DUP2 PUSH1 0x0 DUP7 GAS CALL SWAP2 POP POP RETURNDATASIZE DUP1 PUSH1 0x0 DUP2 EQ PUSH2 0x7A7 JUMPI PUSH1 0x40 MLOAD SWAP2 POP PUSH1 0x1F NOT PUSH1 0x3F RETURNDATASIZE ADD AND DUP3 ADD PUSH1 0x40 MSTORE RETURNDATASIZE DUP3 MSTORE RETURNDATASIZE PUSH1 0x0 PUSH1 0x20 DUP5 ADD RETURNDATACOPY PUSH2 0x7AC JUMP JUMPDEST PUSH1 0x60 SWAP2 POP JUMPDEST POP SWAP2 POP SWAP2 POP DUP2 DUP1 ISZERO PUSH2 0x7D6 JUMPI POP DUP1 MLOAD ISZERO DUP1 PUSH2 0x7D6 JUMPI POP DUP1 DUP1 PUSH1 0x20 ADD SWAP1 MLOAD DUP2 ADD SWAP1 PUSH2 0x7D6 SWAP2 SWAP1 PUSH2 0x996 JUMP JUMPDEST PUSH2 0x7F2 JUMPI PUSH1 0x40 MLOAD PUSH3 0x461BCD PUSH1 0xE5 SHL DUP2 MSTORE PUSH1 0x4 ADD PUSH2 0x5E9 SWAP1 PUSH2 0xBB2 JUMP JUMPDEST POP POP POP POP POP JUMP JUMPDEST PUSH1 0x0 DUP1 DUP5 PUSH1 0x1 PUSH1 0x1 PUSH1 0xA0 SHL SUB AND PUSH4 0xA9059CBB PUSH1 0xE0 SHL DUP6 DUP6 PUSH1 0x40 MLOAD PUSH1 0x24 ADD PUSH2 0x821 SWAP3 SWAP2 SWAP1 PUSH2 0xB99 JUMP JUMPDEST PUSH1 0x40 DUP1 MLOAD PUSH1 0x1F NOT DUP2 DUP5 SUB ADD DUP2 MSTORE SWAP2 DUP2 MSTORE PUSH1 0x20 DUP3 ADD DUP1 MLOAD PUSH1 0x1 PUSH1 0x1 PUSH1 0xE0 SHL SUB AND PUSH1 0x1 PUSH1 0x1 PUSH1 0xE0 SHL SUB NOT SWAP1 SWAP5 AND SWAP4 SWAP1 SWAP4 OR SWAP1 SWAP3 MSTORE SWAP1 MLOAD PUSH2 0x85F SWAP2 SWAP1 PUSH2 0xB4C JUMP JUMPDEST PUSH1 0x0 PUSH1 0x40 MLOAD DUP1 DUP4 SUB DUP2 PUSH1 0x0 DUP7 GAS CALL SWAP2 POP POP RETURNDATASIZE DUP1 PUSH1 0x0 DUP2 EQ PUSH2 0x89C JUMPI PUSH1 0x40 MLOAD SWAP2 POP PUSH1 0x1F NOT PUSH1 0x3F RETURNDATASIZE ADD AND DUP3 ADD PUSH1 0x40 MSTORE RETURNDATASIZE DUP3 MSTORE RETURNDATASIZE PUSH1 0x0 PUSH1 0x20 DUP5 ADD RETURNDATACOPY PUSH2 0x8A1 JUMP JUMPDEST PUSH1 0x60 SWAP2 POP JUMPDEST POP SWAP2 POP SWAP2 POP DUP2 DUP1 ISZERO PUSH2 0x8CB JUMPI POP DUP1 MLOAD ISZERO DUP1 PUSH2 0x8CB JUMPI POP DUP1 DUP1 PUSH1 0x20 ADD SWAP1 MLOAD DUP2 ADD SWAP1 PUSH2 0x8CB SWAP2 SWAP1 PUSH2 0x996 JUMP JUMPDEST PUSH2 0x7F2 JUMPI PUSH1 0x40 MLOAD PUSH3 0x461BCD PUSH1 0xE5 SHL DUP2 MSTORE PUSH1 0x4 ADD PUSH2 0x5E9 SWAP1 PUSH2 0xBF5 JUMP JUMPDEST DUP1 MLOAD PUSH2 0x8F2 DUP2 PUSH2 0xD27 JUMP JUMPDEST SWAP2 SWAP1 POP JUMP JUMPDEST DUP1 MLOAD PUSH1 0x2 DUP2 SWAP1 SIGNEXTEND DUP2 EQ PUSH2 0x8F2 JUMPI PUSH1 0x0 DUP1 REVERT JUMPDEST DUP1 MLOAD PUSH1 0x1 PUSH1 0x1 PUSH1 0x80 SHL SUB DUP2 AND DUP2 EQ PUSH2 0x8F2 JUMPI PUSH1 0x0 DUP1 REVERT JUMPDEST DUP1 MLOAD PUSH3 0xFFFFFF DUP2 AND DUP2 EQ PUSH2 0x8F2 JUMPI PUSH1 0x0 DUP1 REVERT JUMPDEST PUSH1 0x0 PUSH1 0x20 DUP3 DUP5 SUB SLT ISZERO PUSH2 0x944 JUMPI DUP1 DUP2 REVERT JUMPDEST DUP2 MLOAD PUSH2 0x94F DUP2 PUSH2 0xD27 JUMP JUMPDEST SWAP4 SWAP3 POP POP POP JUMP JUMPDEST PUSH1 0x0 DUP1 PUSH1 0x0 PUSH1 0x60 DUP5 DUP7 SUB SLT ISZERO PUSH2 0x96A JUMPI DUP2 DUP3 REVERT JUMPDEST DUP4 CALLDATALOAD PUSH2 0x975 DUP2 PUSH2 0xD27 JUMP JUMPDEST SWAP3 POP PUSH1 0x20 DUP5 ADD CALLDATALOAD PUSH2 0x985 DUP2 PUSH2 0xD27 JUMP JUMPDEST SWAP3 SWAP6 SWAP3 SWAP5 POP POP POP PUSH1 0x40 SWAP2 SWAP1 SWAP2 ADD CALLDATALOAD SWAP1 JUMP JUMPDEST PUSH1 0x0 PUSH1 0x20 DUP3 DUP5 SUB SLT ISZERO PUSH2 0x9A7 JUMPI DUP1 DUP2 REVERT JUMPDEST DUP2 MLOAD DUP1 ISZERO ISZERO DUP2 EQ PUSH2 0x94F JUMPI DUP2 DUP3 REVERT JUMPDEST PUSH1 0x0 PUSH1 0x20 DUP3 DUP5 SUB SLT ISZERO PUSH2 0x9C7 JUMPI DUP1 DUP2 REVERT JUMPDEST POP CALLDATALOAD SWAP2 SWAP1 POP JUMP JUMPDEST PUSH1 0x0 PUSH1 0x20 DUP3 DUP5 SUB SLT ISZERO PUSH2 0x9DF JUMPI DUP1 DUP2 REVERT JUMPDEST POP MLOAD SWAP2 SWAP1 POP JUMP JUMPDEST PUSH1 0x0 DUP1 PUSH1 0x0 DUP1 PUSH1 0x0 DUP1 PUSH1 0xC0 DUP8 DUP10 SUB SLT ISZERO PUSH2 0x9FE JUMPI DUP2 DUP3 REVERT JUMPDEST DUP7 CALLDATALOAD SWAP6 POP PUSH1 0x20 DUP8 ADD CALLDATALOAD PUSH2 0xA10 DUP2 PUSH2 0xD27 JUMP JUMPDEST SWAP5 POP PUSH1 0x40 DUP8 ADD CALLDATALOAD PUSH2 0xA20 DUP2 PUSH2 0xD27 JUMP JUMPDEST SWAP4 POP PUSH1 0x60 DUP8 ADD CALLDATALOAD PUSH2 0xA30 DUP2 PUSH2 0xD27 JUMP JUMPDEST SWAP6 SWAP9 SWAP5 SWAP8 POP SWAP3 SWAP6 PUSH1 0x80 DUP2 ADD CALLDATALOAD SWAP5 PUSH1 0xA0 SWAP1 SWAP2 ADD CALLDATALOAD SWAP4 POP SWAP2 POP POP JUMP JUMPDEST PUSH1 0x0 DUP1 PUSH1 0x40 DUP4 DUP6 SUB SLT ISZERO PUSH2 0xA5C JUMPI DUP2 DUP3 REVERT JUMPDEST POP POP DUP1 MLOAD PUSH1 0x20 SWAP1 SWAP2 ADD MLOAD SWAP1 SWAP3 SWAP1 SWAP2 POP JUMP JUMPDEST PUSH1 0x0 DUP1 PUSH1 0x0 DUP1 PUSH1 0x0 DUP1 PUSH1 0x0 DUP1 PUSH1 0x0 DUP1 PUSH1 0x0 DUP1 PUSH2 0x180 DUP14 DUP16 SUB SLT ISZERO PUSH2 0xA8F JUMPI DUP6 DUP7 REVERT JUMPDEST DUP13 MLOAD PUSH12 0xFFFFFFFFFFFFFFFFFFFFFFFF DUP2 AND DUP2 EQ PUSH2 0xAAA JUMPI DUP7 DUP8 REVERT JUMPDEST SWAP12 POP PUSH2 0xAB8 PUSH1 0x20 DUP15 ADD PUSH2 0x8E7 JUMP JUMPDEST SWAP11 POP PUSH2 0xAC6 PUSH1 0x40 DUP15 ADD PUSH2 0x8E7 JUMP JUMPDEST SWAP10 POP PUSH2 0xAD4 PUSH1 0x60 DUP15 ADD PUSH2 0x8E7 JUMP JUMPDEST SWAP9 POP PUSH2 0xAE2 PUSH1 0x80 DUP15 ADD PUSH2 0x920 JUMP JUMPDEST SWAP8 POP PUSH2 0xAF0 PUSH1 0xA0 DUP15 ADD PUSH2 0x8F7 JUMP JUMPDEST SWAP7 POP PUSH2 0xAFE PUSH1 0xC0 DUP15 ADD PUSH2 0x8F7 JUMP JUMPDEST SWAP6 POP PUSH2 0xB0C PUSH1 0xE0 DUP15 ADD PUSH2 0x909 JUMP JUMPDEST SWAP5 POP PUSH2 0x100 DUP14 ADD MLOAD SWAP4 POP PUSH2 0x120 DUP14 ADD MLOAD SWAP3 POP PUSH2 0xB2B PUSH2 0x140 DUP15 ADD PUSH2 0x909 JUMP JUMPDEST SWAP2 POP PUSH2 0xB3A PUSH2 0x160 DUP15 ADD PUSH2 0x909 JUMP JUMPDEST SWAP1 POP SWAP3 SWAP6 SWAP9 SWAP12 POP SWAP3 SWAP6 SWAP9 SWAP12 POP SWAP3 SWAP6 SWAP9 SWAP12 JUMP JUMPDEST PUSH1 0x0 DUP3 MLOAD DUP2 JUMPDEST DUP2 DUP2 LT ISZERO PUSH2 0xB6C JUMPI PUSH1 0x20 DUP2 DUP7 ADD DUP2 ADD MLOAD DUP6 DUP4 ADD MSTORE ADD PUSH2 0xB52 JUMP JUMPDEST DUP2 DUP2 GT ISZERO PUSH2 0xB7A JUMPI DUP3 DUP3 DUP6 ADD MSTORE JUMPDEST POP SWAP2 SWAP1 SWAP2 ADD SWAP3 SWAP2 POP POP JUMP JUMPDEST PUSH1 0x1 PUSH1 0x1 PUSH1 0xA0 SHL SUB SWAP2 SWAP1 SWAP2 AND DUP2 MSTORE PUSH1 0x20 ADD SWAP1 JUMP JUMPDEST PUSH1 0x1 PUSH1 0x1 PUSH1 0xA0 SHL SUB SWAP3 SWAP1 SWAP3 AND DUP3 MSTORE PUSH1 0x20 DUP3 ADD MSTORE PUSH1 0x40 ADD SWAP1 JUMP JUMPDEST PUSH1 0x20 DUP1 DUP3 MSTORE PUSH1 0x2 SWAP1 DUP3 ADD MSTORE PUSH2 0x5341 PUSH1 0xF0 SHL PUSH1 0x40 DUP3 ADD MSTORE PUSH1 0x60 ADD SWAP1 JUMP JUMPDEST PUSH1 0x20 DUP1 DUP3 MSTORE PUSH1 0xD SWAP1 DUP3 ADD MSTORE PUSH13 0x2737BA103A34329037BBB732B9 PUSH1 0x99 SHL PUSH1 0x40 DUP3 ADD MSTORE PUSH1 0x60 ADD SWAP1 JUMP JUMPDEST PUSH1 0x20 DUP1 DUP3 MSTORE PUSH1 0x2 SWAP1 DUP3 ADD MSTORE PUSH2 0x14D5 PUSH1 0xF2 SHL PUSH1 0x40 DUP3 ADD MSTORE PUSH1 0x60 ADD SWAP1 JUMP JUMPDEST DUP2 MLOAD DUP2 MSTORE PUSH1 0x20 DUP1 DUP4 ADD MLOAD PUSH1 0x1 PUSH1 0x1 PUSH1 0xA0 SHL SUB AND SWAP1 DUP3 ADD MSTORE PUSH1 0x40 DUP1 DUP4 ADD MLOAD PUSH1 0x1 PUSH1 0x1 PUSH1 0x80 SHL SUB SWAP1 DUP2 AND SWAP2 DUP4 ADD SWAP2 SWAP1 SWAP2 MSTORE PUSH1 0x60 SWAP3 DUP4 ADD MLOAD AND SWAP2 DUP2 ADD SWAP2 SWAP1 SWAP2 MSTORE PUSH1 0x80 ADD SWAP1 JUMP JUMPDEST PUSH1 0x0 PUSH1 0xA0 DUP3 ADD SWAP1 POP DUP3 MLOAD DUP3 MSTORE PUSH1 0x1 PUSH1 0x1 PUSH1 0x80 SHL SUB PUSH1 0x20 DUP5 ADD MLOAD AND PUSH1 0x20 DUP4 ADD MSTORE PUSH1 0x40 DUP4 ADD MLOAD PUSH1 0x40 DUP4 ADD MSTORE PUSH1 0x60 DUP4 ADD MLOAD PUSH1 0x60 DUP4 ADD MSTORE PUSH1 0x80 DUP4 ADD MLOAD PUSH1 0x80 DUP4 ADD MSTORE SWAP3 SWAP2 POP POP JUMP JUMPDEST DUP2 MLOAD PUSH1 0x1 PUSH1 0x1 PUSH1 0xA0 SHL SUB SWAP1 DUP2 AND DUP3 MSTORE PUSH1 0x20 DUP1 DUP5 ADD MLOAD DUP3 AND SWAP1 DUP4 ADD MSTORE PUSH1 0x40 DUP1 DUP5 ADD MLOAD PUSH3 0xFFFFFF AND SWAP1 DUP4 ADD MSTORE PUSH1 0x60 DUP1 DUP5 ADD MLOAD DUP3 AND SWAP1 DUP4 ADD MSTORE PUSH1 0x80 DUP1 DUP5 ADD MLOAD SWAP1 DUP4 ADD MSTORE PUSH1 0xA0 DUP4 DUP2 ADD MLOAD SWAP1 DUP4 ADD MSTORE PUSH1 0xC0 DUP1 DUP5 ADD MLOAD SWAP1 DUP4 ADD MSTORE PUSH1 0xE0 SWAP3 DUP4 ADD MLOAD AND SWAP2 DUP2 ADD SWAP2 SWAP1 SWAP2 MSTORE PUSH2 0x100 ADD SWAP1 JUMP JUMPDEST PUSH3 0xFFFFFF SWAP2 SWAP1 SWAP2 AND DUP2 MSTORE PUSH1 0x20 ADD SWAP1 JUMP JUMPDEST SWAP1 DUP2 MSTORE PUSH1 0x20 ADD SWAP1 JUMP JUMPDEST SWAP2 DUP3 MSTORE PUSH1 0x20 DUP3 ADD MSTORE PUSH1 0x40 ADD SWAP1 JUMP JUMPDEST PUSH1 0x1 PUSH1 0x1 PUSH1 0xA0 SHL SUB DUP2 AND DUP2 EQ PUSH2 0xD3C JUMPI PUSH1 0x0 DUP1 REVERT JUMPDEST POP JUMP INVALID LOG2 PUSH5 0x6970667358 0x22 SLT KECCAK256 0xFC CALLDATACOPY STATICCALL PUSH32 0xCDAD4A35F9EF2AF3E0478AC0C1937E780FFD0309202B818890CA19A64736F6C PUSH4 0x43000706 STOP CALLER "},"gasEstimates":{"creation":{"codeDepositCost":"689000","executionCost":"infinite","totalCost":"infinite"},"external":{"DAI()":"340","_collectTokens(uint256,address,address,address,uint256,uint256)":"infinite","_sendToOwner(uint256,address,address,address,uint256,uint256)":"infinite","convertToUSDCAndTransfer(address,address,uint256)":"infinite","exitLiquidity(uint256)":"infinite","nonfungiblePositionManager()":"infinite","nonfungiblePositionManagerAddress()":"1115","poolFee()":"241","quoter()":"296","uniswapRouter()":"319","userAddress()":"1180"}},"methodIdentifiers":{"DAI()":"e0bab4c4","_collectTokens(uint256,address,address,address,uint256,uint256)":"a1a741a2","_sendToOwner(uint256,address,address,address,uint256,uint256)":"b9b5a680","convertToUSDCAndTransfer(address,address,uint256)":"3c7e64b3","exitLiquidity(uint256)":"c8cdf640","nonfungiblePositionManager()":"b44a2722","nonfungiblePositionManagerAddress()":"5bfccac9","poolFee()":"089fe6aa","quoter()":"c6bbd5a7","uniswapRouter()":"735de9f7","userAddress()":"e4128fb3"}},"storageLayout":{"storage":[{"astId":1508,"contract":"contracts/ExitLiquidity.sol:ExitLiquidity","label":"nonfungiblePositionManagerAddress","offset":0,"slot":"0","type":"t_address"},{"astId":1519,"contract":"contracts/ExitLiquidity.sol:ExitLiquidity","label":"userAddress","offset":0,"slot":"1","type":"t_address"}],"types":{"t_address":{"encoding":"inplace","label":"address","numberOfBytes":"20"}}},"userdoc":{"kind":"user","methods":{"convertToUSDCAndTransfer(address,address,uint256)":{"notice":"To convert tokens to USDC before transfer to the owner"}},"version":1}}}}